{
  "_format": "hh-sol-artifact-1",
  "contractName": "BankAccount",
  "sourceName": "contracts/BankAccount.sol",
  "abi": [
    {
      "anonymous": false,
      "inputs": [
        {
          "indexed": false,
          "internalType": "address[]",
          "name": "owners",
          "type": "address[]"
        },
        {
          "indexed": true,
          "internalType": "uint256",
          "name": "id",
          "type": "uint256"
        },
        {
          "indexed": false,
          "internalType": "uint256",
          "name": "timestmap",
          "type": "uint256"
        }
      ],
      "name": "AccountCreated",
      "type": "event"
    },
    {
      "anonymous": false,
      "inputs": [
        {
          "indexed": true,
          "internalType": "address",
          "name": "user",
          "type": "address"
        },
        {
          "indexed": true,
          "internalType": "uint256",
          "name": "accountId",
          "type": "uint256"
        },
        {
          "indexed": false,
          "internalType": "uint256",
          "name": "value",
          "type": "uint256"
        },
        {
          "indexed": false,
          "internalType": "uint256",
          "name": "timestamp",
          "type": "uint256"
        }
      ],
      "name": "Deposit",
      "type": "event"
    },
    {
      "anonymous": false,
      "inputs": [
        {
          "indexed": true,
          "internalType": "uint256",
          "name": "withdrawId",
          "type": "uint256"
        },
        {
          "indexed": false,
          "internalType": "uint256",
          "name": "timestamp",
          "type": "uint256"
        }
      ],
      "name": "Withdraw",
      "type": "event"
    },
    {
      "anonymous": false,
      "inputs": [
        {
          "indexed": true,
          "internalType": "address",
          "name": "user",
          "type": "address"
        },
        {
          "indexed": true,
          "internalType": "uint256",
          "name": "accountId",
          "type": "uint256"
        },
        {
          "indexed": true,
          "internalType": "uint256",
          "name": "withdrawId",
          "type": "uint256"
        },
        {
          "indexed": false,
          "internalType": "uint256",
          "name": "ammount",
          "type": "uint256"
        },
        {
          "indexed": false,
          "internalType": "uint256",
          "name": "timestamp",
          "type": "uint256"
        }
      ],
      "name": "WithdrawRequested",
      "type": "event"
    },
    {
      "inputs": [
        {
          "internalType": "uint256",
          "name": "accountId",
          "type": "uint256"
        },
        {
          "internalType": "uint256",
          "name": "withdrawId",
          "type": "uint256"
        }
      ],
      "name": "approveWithdrawl",
      "outputs": [],
      "stateMutability": "nonpayable",
      "type": "function"
    },
    {
      "inputs": [
        {
          "internalType": "address[]",
          "name": "otherOwners",
          "type": "address[]"
        }
      ],
      "name": "createAccount",
      "outputs": [],
      "stateMutability": "nonpayable",
      "type": "function"
    },
    {
      "inputs": [
        {
          "internalType": "uint256",
          "name": "accountId",
          "type": "uint256"
        }
      ],
      "name": "deposit",
      "outputs": [],
      "stateMutability": "payable",
      "type": "function"
    },
    {
      "inputs": [],
      "name": "getAccounts",
      "outputs": [
        {
          "internalType": "uint256[]",
          "name": "",
          "type": "uint256[]"
        }
      ],
      "stateMutability": "view",
      "type": "function"
    },
    {
      "inputs": [
        {
          "internalType": "uint256",
          "name": "accountId",
          "type": "uint256"
        },
        {
          "internalType": "uint256",
          "name": "withdrawId",
          "type": "uint256"
        }
      ],
      "name": "getApprovals",
      "outputs": [
        {
          "internalType": "uint256",
          "name": "",
          "type": "uint256"
        }
      ],
      "stateMutability": "view",
      "type": "function"
    },
    {
      "inputs": [
        {
          "internalType": "uint256",
          "name": "accountId",
          "type": "uint256"
        }
      ],
      "name": "getBalance",
      "outputs": [
        {
          "internalType": "uint256",
          "name": "",
          "type": "uint256"
        }
      ],
      "stateMutability": "view",
      "type": "function"
    },
    {
      "inputs": [
        {
          "internalType": "uint256",
          "name": "accountId",
          "type": "uint256"
        }
      ],
      "name": "getOwners",
      "outputs": [
        {
          "internalType": "address[]",
          "name": "",
          "type": "address[]"
        }
      ],
      "stateMutability": "view",
      "type": "function"
    },
    {
      "inputs": [
        {
          "internalType": "uint256",
          "name": "accountId",
          "type": "uint256"
        },
        {
          "internalType": "uint256",
          "name": "amount",
          "type": "uint256"
        }
      ],
      "name": "requestWithdrawal",
      "outputs": [],
      "stateMutability": "nonpayable",
      "type": "function"
    },
    {
      "inputs": [
        {
          "internalType": "uint256",
          "name": "accountId",
          "type": "uint256"
        },
        {
          "internalType": "uint256",
          "name": "withdrawId",
          "type": "uint256"
        }
      ],
      "name": "withdraw",
      "outputs": [],
      "stateMutability": "nonpayable",
      "type": "function"
    }
  ],
  "bytecode": "0x608060405234801561001057600080fd5b50611b97806100206000396000f3fe6080604052600436106100865760003560e01c80638a48ac03116100595780638a48ac0314610157578063ae2ebd7f14610182578063b6b55f25146101ab578063ee4525d5146101c7578063eff634331461020457610086565b80631e0104391461008b578063441a3e70146100c8578063785e5531146100f1578063867275a51461011a575b600080fd5b34801561009757600080fd5b506100b260048036038101906100ad919061120e565b61022d565b6040516100bf919061124a565b60405180910390f35b3480156100d457600080fd5b506100ef60048036038101906100ea9190611265565b61024c565b005b3480156100fd57600080fd5b5061011860048036038101906101139190611265565b610557565b005b34801561012657600080fd5b50610141600480360381019061013c9190611265565b61074d565b60405161014e919061124a565b60405180910390f35b34801561016357600080fd5b5061016c610781565b6040516101799190611363565b60405180910390f35b34801561018e57600080fd5b506101a960048036038101906101a49190611265565b610816565b005b6101c560048036038101906101c0919061120e565b610a65565b005b3480156101d357600080fd5b506101ee60048036038101906101e9919061120e565b610b9a565b6040516101fb9190611475565b60405180910390f35b34801561021057600080fd5b5061022b600480360381019061022691906114fc565b610c3d565b005b6000806000838152602001908152602001600020600101549050919050565b81813373ffffffffffffffffffffffffffffffffffffffff16600080848152602001908152602001600020600201600083815260200190815260200160002060000160009054906101000a900473ffffffffffffffffffffffffffffffffffffffff1673ffffffffffffffffffffffffffffffffffffffff1614610305576040517f08c379a00000000000000000000000000000000000000000000000000000000081526004016102fc906115a6565b60405180910390fd5b600080838152602001908152602001600020600201600082815260200190815260200160002060040160009054906101000a900460ff1661037b576040517f08c379a000000000000000000000000000000000000000000000000000000000815260040161037290611612565b60405180910390fd5b6000806000868152602001908152602001600020600201600085815260200190815260200160002060010154905080600080878152602001908152602001600020600101541015610401576040517f08c379a00000000000000000000000000000000000000000000000000000000081526004016103f89061167e565b60405180910390fd5b80600080878152602001908152602001600020600101600082825461042691906116cd565b925050819055506000808681526020019081526020016000206002016000858152602001908152602001600020600080820160006101000a81549073ffffffffffffffffffffffffffffffffffffffff0219169055600182016000905560028201600090556004820160006101000a81549060ff0219169055505060003373ffffffffffffffffffffffffffffffffffffffff16826040516104c790611732565b60006040518083038185875af1925050503d8060008114610504576040519150601f19603f3d011682016040523d82523d6000602084013e610509565b606091505b505090508061051757600080fd5b847f56ca301a9219608c91e7bcee90e083c19671d2cdcc96752c7af291cee5f9c8c842604051610547919061124a565b60405180910390a2505050505050565b81600080600090505b6000808481526020019081526020016000206000018054905081101561061a573373ffffffffffffffffffffffffffffffffffffffff1660008085815260200190815260200160002060000182815481106105be576105bd611747565b5b9060005260206000200160009054906101000a900473ffffffffffffffffffffffffffffffffffffffff1673ffffffffffffffffffffffffffffffffffffffff160361060d576001915061061a565b8080600101915050610560565b508061065b576040517f08c379a0000000000000000000000000000000000000000000000000000000008152600401610652906117e8565b60405180910390fd5b60008060008681526020019081526020016000206002016000858152602001908152602001600020905080600201600081548092919061069a90611808565b919050555060018160030160003373ffffffffffffffffffffffffffffffffffffffff1673ffffffffffffffffffffffffffffffffffffffff16815260200190815260200160002060006101000a81548160ff02191690831515021790555060016000808781526020019081526020016000206000018054905061071e91906116cd565b8160020154036107465760018160040160006101000a81548160ff0219169083151502179055505b5050505050565b6000806000848152602001908152602001600020600201600083815260200190815260200160002060020154905092915050565b6060600160003373ffffffffffffffffffffffffffffffffffffffff1673ffffffffffffffffffffffffffffffffffffffff16815260200190815260200160002080548060200260200160405190810160405280929190818152602001828054801561080c57602002820191906000526020600020905b8154815260200190600101908083116107f8575b5050505050905090565b81600080600090505b600080848152602001908152602001600020600001805490508110156108d9573373ffffffffffffffffffffffffffffffffffffffff16600080858152602001908152602001600020600001828154811061087d5761087c611747565b5b9060005260206000200160009054906101000a900473ffffffffffffffffffffffffffffffffffffffff1673ffffffffffffffffffffffffffffffffffffffff16036108cc57600191506108d9565b808060010191505061081f565b508061091a576040517f08c379a0000000000000000000000000000000000000000000000000000000008152600401610911906117e8565b60405180910390fd5b838380600080848152602001908152602001600020600101541015610974576040517f08c379a000000000000000000000000000000000000000000000000000000000815260040161096b9061189c565b60405180910390fd5b60006003549050600080600089815260200190815260200160002060020160008381526020019081526020016000209050338160000160006101000a81548173ffffffffffffffffffffffffffffffffffffffff021916908373ffffffffffffffffffffffffffffffffffffffff16021790555086816001018190555060036000815480929190610a0490611808565b919050555081883373ffffffffffffffffffffffffffffffffffffffff167f1f0d204a59639d21245dbaa239dfc9a6227aa86cb614bdda19843c52d155fcfa8a42604051610a539291906118bc565b60405180910390a45050505050505050565b80600080600090505b60008084815260200190815260200160002060000180549050811015610b28573373ffffffffffffffffffffffffffffffffffffffff166000808581526020019081526020016000206000018281548110610acc57610acb611747565b5b9060005260206000200160009054906101000a900473ffffffffffffffffffffffffffffffffffffffff1673ffffffffffffffffffffffffffffffffffffffff1603610b1b5760019150610b28565b8080600101915050610a6e565b5080610b69576040517f08c379a0000000000000000000000000000000000000000000000000000000008152600401610b60906117e8565b60405180910390fd5b346000808581526020019081526020016000206001016000828254610b8e91906118e5565b92505081905550505050565b6060600080838152602001908152602001600020600001805480602002602001604051908101604052809291908181526020018280548015610c3157602002820191906000526020600020905b8160009054906101000a900473ffffffffffffffffffffffffffffffffffffffff1673ffffffffffffffffffffffffffffffffffffffff1681526020019060010190808311610be7575b50505050509050919050565b81816004600183839050610c5191906118e5565b1115610c92576040517f08c379a0000000000000000000000000000000000000000000000000000000008152600401610c899061198b565b60405180910390fd5b60005b82829050811015610e29573373ffffffffffffffffffffffffffffffffffffffff16838383818110610cca57610cc9611747565b5b9050602002016020810190610cdf91906119d7565b73ffffffffffffffffffffffffffffffffffffffff1603610d35576040517f08c379a0000000000000000000000000000000000000000000000000000000008152600401610d2c90611a50565b60405180910390fd5b6000600182610d4491906118e5565b90505b83839050811015610e1b57838382818110610d6557610d64611747565b5b9050602002016020810190610d7a91906119d7565b73ffffffffffffffffffffffffffffffffffffffff16848484818110610da357610da2611747565b5b9050602002016020810190610db891906119d7565b73ffffffffffffffffffffffffffffffffffffffff1603610e0e576040517f08c379a0000000000000000000000000000000000000000000000000000000008152600401610e0590611a50565b60405180910390fd5b8080600101915050610d47565b508080600101915050610c95565b506000600185859050610e3c91906118e5565b67ffffffffffffffff811115610e5557610e54611a70565b5b604051908082528060200260200182016040528015610e835781602001602082028036833780820191505090505b50905033818686905081518110610e9d57610e9c611747565b5b602002602001019073ffffffffffffffffffffffffffffffffffffffff16908173ffffffffffffffffffffffffffffffffffffffff16815250506000600254905060005b82518110156110a25760018351610ef891906116cd565b811015610f7557868682818110610f1257610f11611747565b5b9050602002016020810190610f2791906119d7565b838281518110610f3a57610f39611747565b5b602002602001019073ffffffffffffffffffffffffffffffffffffffff16908173ffffffffffffffffffffffffffffffffffffffff16815250505b600260016000858481518110610f8e57610f8d611747565b5b602002602001015173ffffffffffffffffffffffffffffffffffffffff1673ffffffffffffffffffffffffffffffffffffffff168152602001908152602001600020805490501115611015576040517f08c379a000000000000000000000000000000000000000000000000000000000815260040161100c90611b11565b60405180910390fd5b6001600084838151811061102c5761102b611747565b5b602002602001015173ffffffffffffffffffffffffffffffffffffffff1673ffffffffffffffffffffffffffffffffffffffff1681526020019081526020016000208290806001815401808255809150506001900390600052602060002001600090919091909150558080600101915050610ee1565b508160008083815260200190815260200160002060000190805190602001906110cc929190611127565b50600260008154809291906110e090611808565b9190505550807f1dfea57c7217d8ee2ef44253419f3a05acdf0e6dea69f12e9e2afa2e748e3c8c8342604051611117929190611b31565b60405180910390a2505050505050565b8280548282559060005260206000209081019282156111a0579160200282015b8281111561119f5782518260006101000a81548173ffffffffffffffffffffffffffffffffffffffff021916908373ffffffffffffffffffffffffffffffffffffffff16021790555091602001919060010190611147565b5b5090506111ad91906111b1565b5090565b5b808211156111ca5760008160009055506001016111b2565b5090565b600080fd5b600080fd5b6000819050919050565b6111eb816111d8565b81146111f657600080fd5b50565b600081359050611208816111e2565b92915050565b600060208284031215611224576112236111ce565b5b6000611232848285016111f9565b91505092915050565b611244816111d8565b82525050565b600060208201905061125f600083018461123b565b92915050565b6000806040838503121561127c5761127b6111ce565b5b600061128a858286016111f9565b925050602061129b858286016111f9565b9150509250929050565b600081519050919050565b600082825260208201905092915050565b6000819050602082019050919050565b6112da816111d8565b82525050565b60006112ec83836112d1565b60208301905092915050565b6000602082019050919050565b6000611310826112a5565b61131a81856112b0565b9350611325836112c1565b8060005b8381101561135657815161133d88826112e0565b9750611348836112f8565b925050600181019050611329565b5085935050505092915050565b6000602082019050818103600083015261137d8184611305565b905092915050565b600081519050919050565b600082825260208201905092915050565b6000819050602082019050919050565b600073ffffffffffffffffffffffffffffffffffffffff82169050919050565b60006113dc826113b1565b9050919050565b6113ec816113d1565b82525050565b60006113fe83836113e3565b60208301905092915050565b6000602082019050919050565b600061142282611385565b61142c8185611390565b9350611437836113a1565b8060005b8381101561146857815161144f88826113f2565b975061145a8361140a565b92505060018101905061143b565b5085935050505092915050565b6000602082019050818103600083015261148f8184611417565b905092915050565b600080fd5b600080fd5b600080fd5b60008083601f8401126114bc576114bb611497565b5b8235905067ffffffffffffffff8111156114d9576114d861149c565b5b6020830191508360208202830111156114f5576114f46114a1565b5b9250929050565b60008060208385031215611513576115126111ce565b5b600083013567ffffffffffffffff811115611531576115306111d3565b5b61153d858286016114a6565b92509250509250929050565b600082825260208201905092915050565b7f796f7520646964206e6f74206372656174652074686973207265717565737400600082015250565b6000611590601f83611549565b915061159b8261155a565b602082019050919050565b600060208201905081810360008301526115bf81611583565b9050919050565b7f746869732072657175657374206973206e6f7420617070726f76656400000000600082015250565b60006115fc601c83611549565b9150611607826115c6565b602082019050919050565b6000602082019050818103600083015261162b816115ef565b9050919050565b7f696e73756666696369656e742062616c616e636520746f207769746864726177600082015250565b6000611668602083611549565b915061167382611632565b602082019050919050565b600060208201905081810360008301526116978161165b565b9050919050565b7f4e487b7100000000000000000000000000000000000000000000000000000000600052601160045260246000fd5b60006116d8826111d8565b91506116e3836111d8565b92508282039050818111156116fb576116fa61169e565b5b92915050565b600081905092915050565b50565b600061171c600083611701565b91506117278261170c565b600082019050919050565b600061173d8261170f565b9150819050919050565b7f4e487b7100000000000000000000000000000000000000000000000000000000600052603260045260246000fd5b7f596f7520617265206e6f7420746865206f776e6572206f66207468652061636360008201527f6f756e7400000000000000000000000000000000000000000000000000000000602082015250565b60006117d2602483611549565b91506117dd82611776565b604082019050919050565b60006020820190508181036000830152611801816117c5565b9050919050565b6000611813826111d8565b91507fffffffffffffffffffffffffffffffffffffffffffffffffffffffffffffffff82036118455761184461169e565b5b600182019050919050565b7f696e73756666696369656e742062616c616e6365000000000000000000000000600082015250565b6000611886601483611549565b915061189182611850565b602082019050919050565b600060208201905081810360008301526118b581611879565b9050919050565b60006040820190506118d1600083018561123b565b6118de602083018461123b565b9392505050565b60006118f0826111d8565b91506118fb836111d8565b92508282019050808211156119135761191261169e565b5b92915050565b7f6d6178696d756e206f6620666f7572206f776e65727320706572206163636f7560008201527f6e74000000000000000000000000000000000000000000000000000000000000602082015250565b6000611975602283611549565b915061198082611919565b604082019050919050565b600060208201905081810360008301526119a481611968565b9050919050565b6119b4816113d1565b81146119bf57600080fd5b50565b6000813590506119d1816119ab565b92915050565b6000602082840312156119ed576119ec6111ce565b5b60006119fb848285016119c2565b91505092915050565b7f6e6f206465706c6963617465206f776e65727300000000000000000000000000600082015250565b6000611a3a601383611549565b9150611a4582611a04565b602082019050919050565b60006020820190508181036000830152611a6981611a2d565b9050919050565b7f4e487b7100000000000000000000000000000000000000000000000000000000600052604160045260246000fd5b7f6561636820757365722063616e20686176652061206d6178206f66203320757360008201527f6572730000000000000000000000000000000000000000000000000000000000602082015250565b6000611afb602383611549565b9150611b0682611a9f565b604082019050919050565b60006020820190508181036000830152611b2a81611aee565b9050919050565b60006040820190508181036000830152611b4b8185611417565b9050611b5a602083018461123b565b939250505056fea2646970667358221220fc549de076e9831c10b40f311c722ba51bf28bfefbd2adbc2f84edd7d1e0010464736f6c63430008180033",
  "linkReferences": {},
  "deployedLinkReferences": {}
}